:100000000C94B3110C94E4110C94E4110C94E411CD
:100010000C94E4110C94E4110C94E4110C94E4118C
:100020000C94E4110C94E4110C94E4110C94E4117C
:100030000C94E4110C94E4110C94E4110C94E4116C
:100040000C94E4110C941A9A0C94E4110C94E4119D
:100050000C94E4110C94E4110C94467E0C94B32E91
:100060000C94E4110C940C510C94E4110C94E411D4
:100070000C94E4110C94E4110C94E4110C94E4112C
:100080000C94E4110C94E4110C94E4110C94E4111C
:100090000C94E4110C94E4110C94E4110C94E4110C
:1000A0000C94E4110C94E4110C94E4110C94E411FC
:1000B0000C94E4110C94E4110C94E4110C94E411EC
:1000C0000C94E4110C94E4110C94E4110C94E411DC
:1000D0000C94E4110C94E4110C94E4110C94E411CC
:1000E0000C94E411CF2DD42DD92DE32DED2D662EBA
:1000F000F72DFF2D072E112E1B2E252E342E3E2ED2
:10010000662E482E522E5C2E00380338F237F63712
:10011000FC373A3807380B381138153819381F387A
:10012000233827383A382D3831383538AD5AB65A51
:10013000BD5AC35AC95ADB5AE55AEB5ACF5AD55A57
:10014000084AD73B3BCE016E84BCBFFDC12F3D6C3E
:1001500074319ABD56833DDA3D00C77F11BED9E4A4
:10016000BB4C3E916BAAAABE000000803F05A84C84
:10017000CDB2D44EB93836A9020C50B99186880850
:100180003CA6AAAA2ABE000000803F00434F4D4D66
:10019000554E49434154494F4E0044525952554ED1
:1001A000004552524F525300494E464F0045434876
:1001B0004F0020746F6F206C6F6E672065787472CB
:1001C0007573696F6E2070726576656E7465640A0A
:1001D0000020636F6C6420657874727573696F6E4C
:1001E0002070726576656E7465640A0047322F4729
:1001F000332062616420706172616D657465727331
:100200000A00536C6565702E2E2E00334420507208
:10021000696E7465722072656164792E005265732F
:10022000756D696E67207072696E7400436C6963E6
:100230006B20746F20726573756D652E2E2E004EC7
:100240006F206D6F76652E00456E642066696C6563
:10025000206C6973740A00426567696E2066696C78
:1002600065206C6973740A005344207072696E745F
:10027000696E67206279746520004E6F7420534464
:10028000207072696E74696E670A0046696C652039
:1002900064656C657465643A0044656C6574696F87
:1002A0006E206661696C65642C2046696C653A2035
:1002B000006F70656E206661696C65642C2046690C
:1002C0006C653A20002569730025696D20256973E6
:1002D000002569682025696D2025697300256964FA
:1002E000202569682025696D2025697300256979B5
:1002F00020256964202569682025696D202569739A
:10030000005072696E742074696D653A20005072F5
:100310006F7465637465642050696E0A00452569D1
:10032000202573003344205072696E746572207208
:10033000656164792E00AD01A801A1019A018C01CB
:100340006F66660044454255473A004B494C4C4560
:10035000442E20004D3131332053006F6B0048652F
:100360006174696E6720646F6E652E003F0A00201D
:10037000573A00452569202573003344205072699F
:100380006E7465722072656164792E004265642026
:10039000646F6E652E003F0A0020573A0042656484
:1003A0002048656174696E672E003344205072697D
:1003B0006E746572204F66662E004649524D574155
:1003C00052455F4E414D453A4D61726C696E203128
:1003D0002E312E3120284769746875622920534FC9
:1003E000555243455F434F44455F55524C3A6874FC
:1003F0007470733A2F2F6769746875622E636F6D1E
:100400002F4D61726C696E4669726D776172652FEE
:100410004D61726C696E2050524F544F434F4C5F88
:1004200056455253494F4E3A312E30204D414348A4
:10043000494E455F545950453A3344205072696ED5
:100440007465722045585452554445525F434F5588
:100450004E543A3120555549443A636564653261DA
:1004600032662D343161322D343734382D396231D2
:10047000322D6335356336326633363766660A00A9
:100480007A5F6D696E3A2000795F6D696E3A20007F
:10049000785F6D696E3A20005265706F7274696E94
:1004A0006720656E6473746F702073746174757304
:1004B0000A004D31343520533C696E6465783E2026
:1004C0006F7574206F662072616E67652028302D0D
:1004D00031290A0053657474696E6720547261761D
:1004E000656C20416363656C65726174696F6E3A17
:1004F000200053657474696E67205265747261637D
:100500007420416363656C65726174696F6E3A2033
:100510000053657474696E67205072696E7420416F
:100520006363656C65726174696F6E3A2000536530
:100530007474696E67205072696E7420616E6420F5
:1005400054726176656C20416363656C6572617499
:10055000696F6E3A2000205A002059005800202070
:100560004D61783A2000205A002059005800202080
:100570004D696E3A20004F6E20004F666600536F43
:10058000667420656E6473746F70733A200043293B
:100590000A0061626C656420286D696E2074656D67
:1005A000702000436F6C64206578747275646573A5
:1005B000206172652000454550524F4D206469739B
:1005C00061626C65640A004D36303020486F746596
:1005D0006E6420746F6F20636F6C6420746F20638F
:1005E00068616E67652066696C616D656E740A008E
:1005F0004E6F2063617365206C696768740A0041FF
:1006000063746976652045787472756465723A2002
:1006100000556E6B6E6F776E20636F6D6D616E64EB
:100620003A202200436172642072656D6F766564C2
:10063000004361726420696E7365727465640000C2
:10064000002100240027002A002D00300033000183
:10065000010000040107010A010000220025002812
:10066000002B002E003100340002010000050108BB
:10067000010B01000020002300260029002C002F80
:100680000032000001000003010601090105050513
:1006900005070508080808020202020A0A080804F9
:1006A0000404040101010101010101030303030327
:1006B000030303040707070C0C0C0C0C0C0C0C02B6
:1006C00002020206060606060606060B0B0B0B0BBD
:1006D0000B0B0B01021020200808102040102040B6
:1006E00080020102010804020101020408102040F6
:1006F0008080402010080402018004020180402014
:10070000100804020108040201010204081020403C
:1007100080010204081020408000000A0B02090C2E
:100720000D0E080703040100000000000000000097
:1007300000000000000000000000000000000000B9
:100740000000000000121110000000000000000076
:100750000000000000000000000000000000004B4E
:10076000494C4C45442E2000202D20496E76616C6A
:100770006964206578747275646572206E756D6247
:10078000657220210A0020202077656C636F6D65FB
:1007900000000020312E312E31002020506C616E7F
:1007A0006E657242756666657242797465733A2049
:1007B000002046726565204D656D6F72793A2000A4
:1007C000436F6D70696C65643A204A756E203133F1
:1007D00020323031370A00207C20417574686F72F6
:1007E0003A20286E6F6E652C2064656661756C74A6
:1007F00020636F6E666967290A00323031372D3009
:10080000352D31322031323A303000204C61737452
:1008100020557064617465643A2000312E312E31A8
:100820000A004D61726C696E0020536F66747761C7
:1008300072652052657365740A002057617463689D
:10084000646F672052657365740A002042726F7787
:100850006E206F75742052657365740A00204578A8
:100860007465726E616C2052657365740A00506F16
:1008700077657255700A0073746172740A0065724C
:10088000726F722077726974696E6720746F206668
:10089000696C650A00456E6473746F70732025631C
:1008A00020256320256320256300205A3A00205923
:1008B0003A0020583A00656E6473746F7073206854
:1008C00069743A2000446F6E6520736176696E67C3
:1008D0002066696C652E0A004D32390020746F6FF6
:1008E000206C6F6E6720657874727573696F6E2007
:1008F00070726576656E7465640A0020636F6C645F
:1009000020657874727573696F6E20707265766594
:100910006E7465640A004E6F204C696E65204E75DA
:100920006D626572207769746820636865636B73B4
:10093000756D2C204C617374204C696E653A2000F3
:100940004B494C4C45442E200053544F5050454485
:100950002E20005072696E7465722073746F70700F
:1009600065642064756520746F206572726F7273A0
:100970002E2046697820746865206572726F722037
:10098000616E6420757365204D39393920746F208C
:10099000726573746172742E202854656D7065726F
:1009A00061747572652069732072657365742E2099
:1009B0005365742069742061667465722072657372
:1009C00074617274696E67290A004E6F204368650E
:1009D000636B73756D2077697468206C696E652030
:1009E0006E756D6265722C204C617374204C696E5B
:1009F000653A2000636865636B73756D206D69737C
:100A00006D617463682C204C617374204C696E6551
:100A10003A20004C696E65204E756D6265722069E2
:100A200073206E6F74204C617374204C696E652066
:100A30004E756D6265722B312C204C617374204CA5
:100A4000696E653A20004D313130004D3331004D33
:100A5000383420582059205A2045005344207265CC
:100A60006164206572726F720A00446F6E65207057
:100A700072696E74696E672066696C650A00204948
:100A80006E76616C69642065787472756465722035
:100A90000000004843000048430000484300002095
:100AA000C1000070C10000000020204E6F7A7A6CF7
:100AB000653A20004261636B004D696E696D756D2A
:100AC0002054656D70206973203137302E004865E1
:100AD0006174696E67206661696C6564004578744D
:100AE00072756465206D6F726500526573756D6512
:100AF000207072696E74004348414E4745204F5044
:100B000054494F4E533A0020204E6F7A7A6C653A22
:100B100020006368616E6765006F662074686520F9
:100B200066696C616D656E74005761697420666FEB
:100B300072207374617274004348414E47452046E9
:100B4000494C414D454E540020204E6F7A7A6C65D9
:100B50003A200066696C616D656E7420756E6C6F0D
:100B60006164005761697420666F72004348414EAA
:100B700047452046494C414D454E540020204E6F7C
:100B80007A7A6C653A2000506C65617365207761F4
:100B900069742E2E2E0048656174696E67206E6F31
:100BA0007A7A6C65004348414E47452046494C419E
:100BB0004D454E540020204E6F7A7A6C653A2000E5
:100BC00068656174206E6F7A7A6C652E005072656C
:100BD000737320627574746F6E20746F00434841A4
:100BE0004E47452046494C414D454E540020204E2D
:100BF0006F7A7A6C653A2000746F20636F6E746947
:100C00006E75652E2E2E00616E6420707265737392
:100C100020627574746F6E00496E7365727420661D
:100C2000696C616D656E74004348414E47452046CE
:100C3000494C414D454E540020204E6F7A7A6C65E8
:100C40003A200066696C616D656E74206C6F61643A
:100C5000005761697420666F72004348414E4745F2
:100C60002046494C414D454E540020204E6F7A7A23
:100C70006C653A200066696C616D656E74206578FC
:100C80007472756465005761697420666F72004301
:100C900048414E47452046494C414D454E5400740D
:100CA0006F20726573756D65005761697420666F9A
:100CB00072207072696E74004348414E4745204669
:100CC000494C414D454E540048617264636F646500
:100CD000642044656661756C742053657474696E34
:100CE0006773204C6F616465640A002044002049EA
:100CF0000020204D3330312050005049442073658E
:100D00007474696E67733A0A00204600204200201E
:100D1000480020204D3134352053004D61746572F8
:100D200069616C2068656174757020706172616DB5
:100D300065746572733A0A00205A00205900202019
:100D40004D323036205800486F6D65206F666673EF
:100D500065743A0A00204500205A002059002058A6
:100D60000020420020540020204D32303520530016
:100D7000416476616E6365643A20533C6D696E5FD1
:100D800066656564726174653E20543C6D696E5F92
:100D900074726176656C5F66656564726174653EE8
:100DA00020423C6D696E5F7365676D656E745F743C
:100DB000696D655F6D733E20583C6D61785F787931
:100DC0005F6A65726B3E205A3C6D61785F7A5F6A3C
:100DD00065726B3E20453C6D61785F655F6A657248
:100DE0006B3E0A0020540020520020204D32303447
:100DF000205000416363656C65726174696F6E2099
:100E000028756E6974732F7332293A20503C7072C2
:100E1000696E745F616363656C3E20523C726574F9
:100E2000726163745F616363656C3E20543C7472ED
:100E30006176656C5F616363656C3E0A0020450006
:100E4000205A0020590020204D3230312058004DCA
:100E50006178696D756D20416363656C657261745D
:100E6000696F6E2028756E6974732F7332293A0A80
:100E700000204500205A0020590020204D323033F8
:100E80002058004D6178696D756D206665656472E6
:100E9000617465732028756E6974732F73293A0A1B
:100EA00000204500205A0020590020204D393220D2
:100EB000580053746570732070657220756E697484
:100EC0003A0A0020204D3230302044300A002020E1
:100ED0004D3230302044002044697361626C656497
:100EE0000A0046696C616D656E742073657474697F
:100EF0006E67733A0020204D3134392043203B2067
:100F0000556E69747320696E2043656C73697573DF
:100F10000A0A002020473231203B20556E69747345
:100F200020696E206D6D0A0A0025753A25303275EC
:100F300000253032753A25303275002D2D2D0053A5
:100F400044005A005900580001200001200050724E
:100F5000696E742061626F72746564004E6F205315
:100F6000442063617264005072696E742066726F0F
:100F70006D2053440053746F70207072696E74005A
:100F8000526573756D65207072696E74005061757D
:100F90007365207072696E7400436F6E74726F6C4B
:100FA00000507265706172650054756E6500496E1F
:100FB000666F2073637265656E004D363030004396
:100FC00068616E67652066696C616D656E74004668
:100FD0006C6F7700466C6F770046616E20737065AA
:100FE000656420320046616E20737065656420324E
:100FF0000046616E20737065656420310046616E45
:101000002073706565642031004265640042656448
:10101000004E6F7A7A6C65004E6F7A7A6C65005379
:1010200070656564005370656564004D61696E00AC
:101030004578747275646572004D6F7665205A004C
:101040004D6F76652059004D6F76652058005072BF
:10105000657061726500526573746F7265206661B8
:10106000696C736166650046696C616D656E7400DC
:101070004D6F74696F6E0054656D70657261747543
:101080007265004D61696E0050726568656174201B
:1010900041425320636F6E660050726568656174EB
:1010A00020504C4120636F6E66005049442D44002F
:1010B0005049442D44005049442D49005049442D85
:1010C00049005049442D50005049442D5000200201
:1010D0002046616374002002204661637400200290
:1010E000204D6178002002204D6178002002204DC3
:1010F0006178002002204D696E002002204D696E4B
:10110000002002204D696E004F6666004F6E200081
:101110004175746F74656D700046616E2073706503
:10112000656420320046616E20737065656420320C
:101130000046616E20737065656420310046616E03
:101140002073706565642031004265640042656407
:10115000004E6F7A7A6C65004E6F7A7A6C65004348
:101160006F6E74726F6C0042656400426564004E7D
:101170006F7A7A6C65004E6F7A7A6C650046616EA4
:101180002073706565640046616E207370656564E8
:101190000054656D7065726174757265007C3C3ECB
:1011A0005E2B3D3F2F5B5D3B2C2A225C0062656419
:1011B0000A002C2073797374656D2073746F7070DE
:1011C000656421204865617465725F49443A200076
:1011D00048656174696E67206661696C6564004882
:1011E000656174696E67206661696C656400486555
:1011F0006174696E67206661696C65640048656149
:1012000074696E67206661696C65640070012C0109
:1012100090012701B0012201C0011D01F001180158
:101220001002130130020E01600209019002040154
:10123000C002FF000003FA004003F5008003F00045
:10124000D003EB002004E6007004E100E004DC00C1
:101250004005D700C005D2004006CD00D006C8002A
:101260008007C3003008BE00F008B900C009B40010
:10127000B00AAF00B00BAA00D00CA500000EA00071
:10128000500F9B00C01096005012910000148C006B
:10129000C0158700B0178200B0197D00D01B780000
:1012A000001E730040206E0090226900F02464004C
:1012B00040275F0090295A00E02B5500102E500067
:1012C00020304B0010324600E033410090353C00A6
:1012D0001037370070383200A0392D00B03A28009E
:1012E000A03B2300603C1E00103D1900903D1400FF
:1012F000103E0F00703E0A00C03E0500003F000097
:10130000403FFBFF803FF6FFC03FF1FF544845528E
:101310004D414C2052554E41574159005468657219
:101320006D616C2052756E61776179004572723A19
:10133000204D494E54454D5020424544004572725F
:101340003A204D494E54454D50004D494E54454D5F
:101350005020747269676765726564004572723AFD
:10136000204D415854454D5020424544004572722D
:101370003A204D415854454D50004D415854454D2B
:1013800050207472696767657265640050726568A1
:1013900065617420504C412042656400507265685C
:1013A00065617420504C4120456E64005072656840
:1013B00065617420504C4100507265706172650027
:1013C0005072656865617420414253204265640033
:1013D000507265686561742041425320456E640017
:1013E00050726568656174204142530050726570A7
:1013F000617265004D343238005072656865617401
:1014000020414253005072656865617420504C4120
:1014100000436F6F6C646F776E004368616E676541
:101420002066696C616D656E74004D3834004469E6
:101430007361626C652073746570706572730053BC
:10144000657420686F6D65206F66667365747300E0
:10145000473238004175746F20686F6D65004D6FBD
:1014600076652061786973004D61696E004D6F7615
:10147000652058004D6F76652059004D6F766520C8
:101480005A004578747275646572004D6F766520F8
:10149000302E316D6D004D6F766520316D6D004DD4
:1014A0006F76652031306D6D004D6F766520617807
:1014B0006973004578747275646572004D6F766566
:1014C000205A004D6F76652059004D6F7665205883
:1014D000002042403A0020403A00202F0020423AAB
:1014E00000202F0020543A00205A3A0020593A0098
:1014F00020436F756E7420583A0020453A00205AF8
:101500003A0020593A00583A0020643A0020693ADB
:101510000020703A0023646566696E6520204445AA
:101520004641554C545F4B64200023646566696EE8
:1015300065202044454641554C545F4B69200023AB
:10154000646566696E65202044454641554C545F8C
:101550004B702000504944204175746F74756E655E
:101560002066696E69736865642120507574207403
:101570006865206C617374204B702C204B6920616E
:101580006E64204B6420636F6E7374616E7473209D
:1015900066726F6D2062656C6F7720696E746F2064
:1015A000436F6E66696775726174696F6E2E680A43
:1015B00000504944204175746F74756E65206661F2
:1015C000696C6564212074696D656F75740A0050DB
:1015D0004944204175746F74756E65206661696C4D
:1015E0006564212054656D70657261747572652043
:1015F000746F6F20686967680A00204B643A2000A6
:10160000204B693A2000204B703A20000A20436C9E
:10161000617373696320504944200A002054753A6D
:101620002000204B753A2000206D61783A20002080
:101630006D696E3A200020643A200020626961736F
:101640003A20004F666673657473206170706C6930
:101650006564004572723A20546F6F206661722192
:1016600000546F6F206661722066726F6D20726524
:10167000666572656E636520706F696E740A0043FB
:10168000616E6E6F74206F70656E20737562646931
:101690007220006563686F3A004573746570732F3C
:1016A0006D6D004573746570732F6D6D005A7374A2
:1016B0006570732F6D6D005A73746570732F6D6D47
:1016C000005973746570732F6D6D00597374657074
:1016D000732F6D6D005873746570732F6D6D0058A6
:1016E00073746570732F6D6D00412D747261766532
:1016F0006C00412D74726176656C00412D726574C9
:101700007261637400412D7265747261637400418B
:101710006D6178204500416D6178204500416D6123
:1017200078205A00416D6178205A00416D6178201F
:101730005900416D6178205900416D617820580051
:10174000416D61782058005654726176206D696E43
:10175000005654726176206D696E0056547261763F
:10176000206D696E00566D696E00566D696E00568B
:101770006D696E00566D6178204500566D61782068
:101780004500566D6178204500566D6178205A00FD
:10179000566D6178205A00566D6178205A00566D5A
:1017A0006178205900566D6178205900566D617836
:1017B000205900566D6178205800566D6178205888
:1017C00000566D617820580056652D6A65726B0071
:1017D00056652D6A65726B0056652D6A65726B00E1
:1017E000567A2D6A65726B00567A2D6A65726B00A7
:1017F00056792D6A65726B0056792D6A65726B0099
:1018000056792D6A65726B0056782D6A65726B0089
:1018100056782D6A65726B0056782D6A65726B007A
:10182000416363656C00416363656C00436F6E7474
:10183000726F6C0024F4D43050C38E20C2A24017C3
:10184000828B7011127A910D816CD90AA861E1081E
:10185000C7586607615143061E4B5D05C145A70485
:101860001A411104093D9803713931034036DB02F6
:1018700065339102D4305402802E1D02632CEE0198
:10188000752AC501B028A001102781018F256401A8
:101890002B244B01E0223401AC211F018D200D01CE
:1018A000801FFC00841EED00971DDF00B81CD200D5
:1018B000E61BC600201BBC00641AB200B219A800C7
:1018C0000A19A0006A189900D117910040178B00DF
:1018D000B516840031167E00B31579003A157300F1
:1018E000C7146F0058146A00EE1366008813630073
:1018F00025135E00C7125B006C12570015125400CE
:10190000C111510070114F0021114B00D610490038
:101910008D1047004610440002104200C00F4000E6
:10192000800F3E00420F3C00060F3B00CB0E3800FC
:10193000930E37005C0E3500270E3400F30D320095
:10194000C10D3100900D3000600D2E00320D2D00C4
:10195000050D2C00D90C2B00AE0C2900850C29009C
:101960005C0C2700350C27000E0C2600E80B240029
:10197000C40B2400A00B23007D0B23005A0B210075
:10198000390B2100180B2000F80A1F00D90A1E008D
:10199000BB0A1E009D0A1D00800A1D00630A1C0070
:1019A000470A1B002C0A1B00110A1A00F7091A002B
:1019B000DD091900C4091900AB09190092091700C3
:1019C0007B091800630917004C0916003609160038
:1019D000200916000A091500F5081500E008140092
:1019E000CC081400B8081400A408140090081300D0
:1019F0007D0812006B0813005808120046081200F8
:101A00003408110023081100120811000108110008
:101A1000F0071000E0071000D0071000C00710000A
:101A2000B0070F00A107100091070E0083070F00F9
:101A300074070F0065070E0057070E0049070E00D8
:101A40003B070D002E070E0020070D0013070D00A9
:101A500006070D00F9060C00ED060D00E0060C006F
:101A6000D4060C00C8060C00BC060C00B0060C0026
:101A7000A4060B0099060C008D060B0082060B00D5
:101A800077060B006C060B0061060A0057060B0078
:101A90004C060A0042060A0038060A002E060A0012
:101AA00024060A001A060A001006090007060A00A2
:101AB000FD050900F4050900EB050900E205090030
:101AC000D9050900D0050900C7050900BE050900B0
:101AD000B5050800AD050800A50509009C0508002E
:101AE000940508008C050800840508007C050800A2
:101AF000740508006C050700650508005D05070012
:101B0000560508004E050700470507004005080078
:101B100038050700310507002A05070023050700DF
:101B20001C050600160507000F050700080506003E
:101B300002050700FB040600F5040700EE0406009A
:101B4000E8040600E2040700DB040600D5040600F2
:101B5000CF040600C9040600C3040600BD04060045
:101B6000B7040600B1040500AC040600A604060094
:101B7000A00405009B0406009504050090040600DF
:101B80008A04050085040500800406007A04050027
:101B900075040500700405006B040500660405006B
:101BA000610405005C0405005704050052040500AB
:101BB0004D04050048040500430405003E040400EC
:101BC0003A04050035040500300404002C04050027
:101BD00027040400230405001E0404001A04040062
:101BE00016040500110404000D0404000904050096
:101BF0000404040000040400FC030400F8030400CF
:101C0000F4030400F0030400EC030400E803040000
:101C1000E4030400E0030400DC030400D803040030
:101C2000D4030400D0030400CC030400C803030061
:101C3000C503030024F404D9201BC40C5C0E9804D3
:101C4000C4095F0265077101F405F900FB04B300E4
:101C500048048700C1036900580355000303450089
:101C6000BE023A008402310053022A0029022500F4
:101C700004022000E4011C00C8011900AF01170094
:101C8000980114008401130071011000610110001B
:101C900051010E0043010D0036010B002B010B001A
:101CA00020010B00150109000C01090003010800C7
:101CB000FB000800F3000800EB000700E40006004A
:101CC000DE000600D8000600D2000600CC000500A9
:101CD000C7000500C2000500BD000400B9000400F3
:101CE000B5000400B1000400AD000400A900040028
:101CF000A5000300A20003009F0004009B00030056
:101D00009800030095000200930003009000030078
:101D10008D0002008B000300880002008600020094
:101D200084000300810002007F0002007D000200A9
:101D30007B000200790002007700010076000200BB
:101D40007400020072000100710002006F000200C6
:101D50006D0001006C0002006A00010069000200D1
:101D600067000100660001006500010064000200D8
:101D70006200010061000100600001005F000200DC
:101D80005D0001005C0001005B0001005A000100E1
:101D900059000100580001005700010056000100E1
:101DA00055000100540001005300000053000100E1
:101DB0005200010051000100500001004F000100DD
:101DC0004E0000004E0001004D0001004C000100DB
:101DD0004B0000004B0001004A00010049000100D7
:101DE00048000000480001004700010046000000D4
:101DF00046000100450000004500010044000100CC
:101E000043000000430001004200000042000100C6
:101E10004100000041000100400001003F000000BF
:101E20003F0001003E0000003E0001003D000000B8
:101E30003D0001003C0000003C0000003C000100AF
:101E40003B0000003B0001003A0000003A000100A6
:101E5000390000003900010038000000380000009F
:101E60003800010037000000370001003600000094
:101E7000360000003600010035000000350000008B
:101E8000350001003400000034000000340001007F
:101E90003300000033000000330001003200000076
:101EA000320000003200010031000000310000006B
:101EB000310001003000000030000000300001005F
:101EC0002F0000002F0000002F0000002F00010055
:101ED0002E0000002E0000002E0001002D0000004A
:101EE0002D0000002D0000002D0001002C0000003E
:101EF0002C0000002C0000002C0001002B00000032
:101F00002B0000002B0000002B0001002A00000025
:101F10002A0000002A0000002A0001002900000019
:101F2000290000002900000029000000290001000C
:101F30002800000028000000280000002800000001
:101F400028000100270000002700000027000000F3
:101F500027000000270001002600000026000000E6
:101F600026000000260000002600010025000000D9
:101F700025000000250000002500000025000000CD
:101F800025000100240000002400000024000000BF
:101F900024000000240001002300000023000000B2
:101FA00023000000230000002300000023000000A5
:101FB0002300010022000000220000002200000097
:101FC0002200000022000000220001002100000089
:101FD000210000002100000021000000210000007D
:101FE000210000002100010020000000200000006E
:101FF0002000000020000000200000002000000061
:1020000020000000200001001F0000001F00000051
:102010001F0000001F0000001F0000001F00000044
:102020001F0001001E0000001E0000001E00000036
:102030001E0000004D383420582059205A204500F9
:1020400053442063617264206F6B0A006F70656E89
:10205000526F6F74206661696C65640A00766F6CFC
:10206000756D652E696E6974206661696C65640AB8
:1020700000534420696E6974206661696C0A0052DD
:102080006573656E643A20006F6B00627573793A10
:102090002070617573656420666F7220696E70755B
:1020A000740A00627573793A2070617573656420F3
:1020B000666F7220757365720A00627573793A20D3
:1020C00070726F63657373696E670A004B494C4C9D
:1020D00045442E20004B494C4C2063617573656468
:1020E000206279204B494C4C20627574746F6E2FBE
:1020F00070696E0A004B494C4C45442E20004B49F8
:102100004C4C2063617573656420627920746F6F35
:10211000206D75636820696E6163746976652074EB
:10212000696D65202D2063757272656E7420636F12
:102130006D6D616E643A2000506C6561736520724C
:1021400065736574005052494E5445522048414CC5
:10215000544544005072696E7465722068616C74F5
:1021600065642E206B696C6C28292063616C6C653A
:1021700064210A00656E7175657565696E67202258
:1021800000000020C1000070C10000000057617213
:102190006E696E673A20486F6D696E672042756D93
:1021A000702044697669736F72203C20310A000008
:1021B00000A0400000A0400000004000005243008A
:1021C00000574300004843FFFFFF6175746F2569A6
:1021D0002E67004D3234004D323320257300577284
:1021E0006974696E6720746F2066696C653A2000B7
:1021F0006F70656E206661696C65642C2046696C41
:10220000653A20006F70656E206661696C65642CAC
:102210002046696C653A200046696C652073656CE0
:1022200065637465640A002053697A653A20004644
:10223000696C65206F70656E65643A20006F70652B
:102240006E206661696C65642C2046696C653A2075
:10225000002066696C653A20004E6F7720002220CE
:10226000706F73002220706172656E743A220053A1
:102270005542524F5554494E452043414C4C2074D1
:1022800061726765743A22004B494C4C45442E20DC
:1022900000747279696E6720746F2063616C6C20C2
:1022A0007375622D67636F64652066696C65732062
:1022B0007769746820746F6F206D616E79206C652A
:1022C00076656C732E204D4158206C6576656C20C8
:1022D00069733A004572726F723A0046696C2E203B
:1022E0004469612E0046696C2E204469612E004FBE
:1022F0006666004F6E20004520696E206D6D3300CC
:10230000436F6E74726F6C0043616E6E6F74206504
:102310006E746572207375626469723A2000052ECE
:102320002E004D61696E004E414E494E4954594947
:102330004E46CDCCCC3D0AD7233C17B7D13877CC0D
:102340002B329595E6241FB14F0A00002041000072
:10235000C84200401C4620BCBE4CCA1B0E5AAEC52B
:102360009D7489B8A2BB11241FBECFEFD1E2DEBF9E
:10237000CDBF00E00CBF14E0A0E0B2E0EEE0F0E979
:1023800001E00BBF02C007900D92AA36B107D9F742
:1023900023E1AAE6B4E001C01D92A034B207E1F740
:1023A00011E1C2EBD1E100E006C021970109802FC5
:1023B000FE010E9407BCC13BD10780E00807A9F7D6
:1023C0000E94EAB10C94F5C70C9400002F923F9242
:1023D0004F925F926F927F928F929F92AF92BF9235
:1023E000CF92DF92EF92FF920F931F93CF93DF93E1
:1023F000CDB7DEB7C657D1090FB6F894DEBF0FBE12
:10240000CDBF8091610620E6829FC00111248F51CB
:102410009B4F9093EF108093EE108091020780FF06
:102420001BC0E3E9F6E184918F010F5F1F4F882302
:1024300021F00E94FB4CF801F6CF0091EE101091B4
:10244000EF10D8018D918D01882319F00E94FB4C6B
:10245000F8CF8AE00E94FB4CE091EE10F091EF1073
:102460008081803231F43196F093EF10E093EE10DA
:10247000F3CF8E3469F01091EE100091EF106AE204
:1024800070E0812F902F0E944BBF009721F52AC04A
:10249000818190ED980F9A3010F08D3261F732966D
:1024A000F093EF10E093EE10E091EE10F091EF104A
:1024B000808180538A3010F43196F2CFE091EE1093
:1024C000F091EF1080818032B1F63196F093EF10E9
:1024D000E093EE10F3CFFC0131968291803231F01F
:1024E0008A3221F0A12FB02F9D9102C01082F5CF2A
:1024F000FD01808111968032D9F380538A3020F01B
:10250000E3E9F6E10C94F62620E030E06AE0629F11
:10251000A001639F500D11249A012053310981912C
:10252000280F311D87FD3A95808180538A3078F3DA
:102530008F013196D8018C918032D1F310937304BE
:102540000093720441E050E05093EC104093EB1084
:102550009D3411F40C94DF1A943511F40C94CB26AD
:10256000973411F00C94E4262430310509F45FC649
:1025700038F4809132022230310508F0FAC015C0DB
:102580002A35310509F49EC730F42C31310509F4A0
:102590008DC60C94ED262B35310509F497C72C35E3
:1025A000310509F498C70C94ED26882311F40C9496
:1025B000ED260E94324B80918F02882321F080E12A
:1025C00091E10E94F5790E94F04C8091020783FD11
:1025D0007FC0C0901C11D0901D11E0901E11F09092
:1025E0001F11209150103091511040915210509174
:1025F0005310C701B6010E94F5C3882309F468C0CF
:102600000E9465A5882301F1C0925010D09251100C
:10261000E0925210F0925310E3E9F6E184918F01B9
:102620000F5F1F4F882321F00E94FB4CF801F6CF6B
:10263000E1EDF1E084918F010F5F1F4F882321F0BE
:102640000E94FB4CF801F6CFC0901C11D0901D11D8
:10265000E0901E11F0901F112091501030915110F8
:102660004091521050915310C701B6010E941EBCF8
:102670000E947CBD97FF07C09095809570956195ED
:102680007F4F8F4F9F4F693C71058105910504F184
:10269000C0925010D0925110E0925210F09253100C
:1026A000E3E9F6E184918F010F5F1F4F882321F04A
:1026B0000E94FB4CF801F6CFE2EBF1E084918F0130
:1026C0000F5F1F4F882321F00E94FB4CF801F6CFCB
:1026D000209110113091111140911211509113114C
:1026E0006091441070914510809146109091471070
:1026F0000E94F5C381111DC0209114113091151154
:102700004091161150911711609148107091491025
:1027100080914A1090914B100E94F5C3811109C01D
:102720006091000270910102809102029091030277
:102730001AC06091180270911902072E000C880BC4
:10274000990B0E94FBC3209100023091010240913D
:102750000202509103020E945AC42AE037ED43E27C
:102760005CE30E945AC40E943F4A0E94354A0C947E
:10277000ED26882311F40C94ED2611E0223031056A
:1027800009F010E00E94324B82E50E94774A8823CC
:1027900009F452C10E94094B6B017C014090441026
:1027A000509045106090461070904710209148104E
:1027B0003091491040914A1050914B102BAF3CAFD3
:1027C0004DAF5EAF8091101190911111A091121137
:1027D000B091131123968CAF9DAFAEAFBFAF2397CF
:1027E000209114113091151140911611509117112B
:1027F00027962CAF3DAF4EAF5FAF279720E030E07C
:10280000A901C701B6010E94F5C3882309F4F5C4E4
:10281000A301920123966CAD7DAD8EAD9FAD239744
:102820000E94F5C381110FC02BAD3CAD4DAD5EAD27
:1028300027966CAD7DAD8EAD9FAD27970E94F5C3F9
:10284000882309F4DAC420E030E0A901C701B60109
:102850000E94F5C3881F8827881F18130BC080E0CB
:1028600090E0A0E8BFE367968CAF9DAFAEAFBFAF7F
:1028700067970AC020E030E040E85FEB67962CAF36
:102880003DAF4EAF5FAF6797A301920123966CAD4A
:102890007DAD8EAD9FAD23970E941EBC2F966CAF71
:1028A0007DAF8EAF9FAF2F972BAD3CAD4DAD5EADE5
:1028B00027966CAD7DAD8EAD9FAD27970E941EBC57
:1028C00063966CAF7DAF8EAF9FAF63972F962CADA5
:1028D0003DAD4EAD5FAD2F97CA01B9010E945AC4FC
:1028E0004B015C0163962CAD3DAD4EAD5FAD639782
:1028F000CA01B9010E945AC49B01AC01C501B401CF
:102900000E941FBC0E94B0BE2B966CAF7DAF8EAFF5
:102910009FAF2B9720E030E040E05FE30E945AC475
:102920004B015C01A7019601C701B6010E945AC480
:102930006B017C01A5019401C501B4010E945AC438
:102940009B01AC01C701B6010E941EBC0E94B0BE33
:102950009B01AC0167966CAD7DAD8EAD9FAD679769
:102960000E945AC44B015C0123962CAD3DAD4EAD87
:102970005FAD2397C301B2010E941FBC20E030E08D
:1029800040E05FE30E945AC46B017C0163966CAD2A
:102990007DAD8EAD9FAD639790582B962CAD3DAD20
:1029A0004EAD5FAD2B970E940BBD9B01AC01C501E5
:1029B000B4010E945AC49B01AC01C701B6010E9438
:1029C0001FBCA30192010E941EBC6B017C012796D3
:1029D0002CAD3DAD4EAD5FAD27976BAD7CAD8DADF4
:1029E0009EAD0E941FBC20E030E040E05FE30E940B
:1029F0005AC42B013C012B962CAD3DAD4EAD5FADC5
:102A00002B972F966CAD7DAD8EAD9FAD2F970E940D
:102A10000BBD9B01AC01C501B4010E945AC49B01CE
:102A2000AC01C301B2010E941FBC2BAD3CAD4DAD4A
:102A30005EAD0E941EBC14C089E40E94774A8823C0
:102A400029F00E94094B6B017C0103C0C12CD12CE1
:102A500076018AE40E94774A8823F9F00E94094BA4
:102A600027966CAF7DAF8EAF9FAF279720E030E009
:102A7000A901C701B6010E94F5C381111EC020E063
:102A800030E0A90127966CAD7DAD8EAD9FAD279747
:102A90000E94F5C3811111C0B0C320E030E0A9014C
:102AA000C701B6010E94F5C3882309F4A6C327967F
:102AB0001CAE1DAE1EAE1FAE2797D701C601B05883
:102AC0008BAF9CAFADAFBEAF27962CAD3DAD4EAD3D
:102AD0005FAD2797505823962CAF3DAF4EAF5FAFF9
:102AE00023979C01AD01BC01CD010E945AC44B014A
:102AF0005C0123962CAD3DAD4EAD5FAD2397CA0171
:102B0000B9010E945AC49B01AC01C501B4010E94E5
:102B10001FBC0E94B0BEA7966CAF7DAF8EAF9FAFBB
:102B2000A7978091441090914510A0914610B091C4
:102B300047102B968CAF9DAFAEAFBFAF2B97A701C1
:102B40009601BC01CD010E941FBC67966CAF7DAFA2
:102B50008EAF9FAF679720914810309149104091F8
:102B60004A1050914B102F962CAF3DAF4EAF5FAF38
:102B70002F9727962CAD3DAD4EAD5FAD27972F9685
:102B80006CAD7DAD8EAD9FAD2F970E941FBC6B9637
:102B90006CAF7DAF8EAF9FAF6B978091101190910E
:102BA0001111A0911211B09113116F968CAF9DAFBE
:102BB000AEAFBFAF6F9767962CAD3DAD4EAD5FAD7D
:102BC0006797BC01CD010E941EBC6B017C01209166
:102BD0001411309115114091161150911711A396AF
:102BE0002CAF3DAF4EAF5FAFA3976B962CAD3DAD15
:102BF0004EAD5FAD6B97A3966CAD7DAD8EAD9FADC9
:102C0000A3970E941EBC4B015C0180914C109091D7
:102C10004D10A0914E10B0914F10AF968CAF9DAF5C
:102C2000AEAFBFAFAF979C01AD016091181170912D
:102C3000191180911A1190911B110E941EBC63966C
:102C40006CAF7DAF8EAF9FAF639720911C11309119
:102C50001D1140911E1150911F11AB962CAF3DAF2D
:102C60004EAF5FAFAB978091501090915110A091F3
:102C70005210B0915310E3968CAF9DAFAEAFBFAF83
:102C8000E397A70196016BAD7CAD8DAD9EAD0E9423
:102C90005AC42B013C01A501940123966CAD7DAD76
:102CA0008EAD9FAD23970E945AC49B01AC01C30116
:102CB000B2010E941FBC2B013C01A50194016BAD28
:102CC0007CAD8DAD9EAD0E945AC44B015C01A70145
:102CD000960123966CAD7DAD8EAD9FAD23970E947E
:102CE0005AC49B01AC01C501B4010E941EBCA301E2
:102CF00092010E949DBC6B017C0120E030E0A901A3
:102D00000E94F5C387FF0AC02BED3FE049EC50E479
:102D1000C701B6010E941FBC6B017C01112351F059
:102D20002BED3FE049EC50E4C701B6010E941EBC08
:102D30006B017C0120E030E0A901C701B6010E94CF
:102D4000F5C381112AC06F962CAD3DAD4EAD5FAD80
:102D50006F972B966CAD7DAD8EAD9FAD2B970E947E
:102D6000F5C381111AC0A3962CAD3DAD4EAD5FAD3C
:102D7000A3972F966CAD7DAD8EAD9FAD2F970E9422
:102D8000F5C381110AC02BED3FE049EC50E4C701C7
:102D9000B6010E941FBC6B017C01A7962CAD3DAD16
:102DA0004EAD5FADA797C701B6010E945AC49B0103
:102DB000AC010E945AC44B015C0163962CAD3DAD41
:102DC0004EAD5FAD6397CA01B9010E945AC49B0121
:102DD000AC01C501B4010E941FBC0E94B0BE4B01F2
:102DE0005C012FE632E143E85AE30E94F5C387FD18
:102DF00000C2C501B4010E94B1BD0E9482BD2D96E2
:102E00007FAF6EAF2D97DB01AB2B31F4E1E0F0E04B
:102E10002D96FFAFEEAF2D972D962EAD3FAD2D9792
:102E2000B90180E090E00E94F9C34B015C019B0175
:102E3000AC01C701B6010E940BBD2B966CAF7DAFF4
:102E40008EAF9FAF2B97A501940163966CAD7DADBE
:102E50008EAD9FAD63970E940BBDA7966CAF7DAF03
:102E60008EAF9FAFA797E3962CAD3DAD4EAD5FAD56
:102E7000E397AB966CAD7DAD8EAD9FADAB970E94E9
:102E80001EBCA50194010E940BBDAB966CAF7DAF3B
:102E90008EAF9FAFAB972B962CAD3DAD4EAD5FADDA
:102EA0002B97CA01B9010E945AC420E030E040E0EB
:102EB0005FE30E945AC49B01AC0160E070E080E8CF
:102EC0009FE30E941EBC63966CAF7DAF8EAF9FAF39
:102ED0006397AF968CAD9DADAEADBFADAF97898713
:102EE0009A87AB87BC87E3962CAD3DAD4EAD5FAD09
:102EF000E3972D873E874F87588B6091180270911A
:102F00001902072E000C880B990B0E94FBC320911D
:102F100000023091010240910202509103020E948E
:102F20005AC42AE037ED43E25CE30E945AC46F962C
:102F30006CAF7DAF8EAF9FAF6F970E94A72E9B01A6
:102F4000AC0128533F4F4F4F5F4FA3962CAF3DAF7F
:102F50004EAF5FAFA3974BAC5CAC6DAC7EAC2224A4
:102F60002394312CD12C2D968EAD9FAD2D97281604
:102F7000390609F42AC10E946C810E94A72EDC0147
:102F8000CB01A3962CAD3DAD4EAD5FADA397821B9B
:102F9000930BA40BB50BB7FD11C00E94A72E9B018C
:102FA000AC0128533F4F4F4F5F4FA3962CAF3DAF1F
:102FB0004EAF5FAFA39780E00E94F4A5D39438E1B1
:102FC0003D150CF44BC063962CAD3DAD4EAD5FADE1
:102FD000639723966CAD7DAD8EAD9FAD23970E9418
:102FE0005AC44B015C012B962CAD3DAD4EAD5FAD8F
:102FF0002B97B201C3010E945AC4A50194010E94FB
:103000001FBC7B018C0163962CAD3DAD4EAD5FAD19
:103010006397B201C3010E945AC44B015C012B9615
:103020002CAD3DAD4EAD5FAD2B9723966CAD7DAD18
:103030008EAD9FAD23970E945AC49B01AC01C50180
:10304000B4010E941EBC2B013C01C701D80123968C
:103050008CAF9DAFAEAFBFAF239756C0B10180E03C
:1030600090E00E94F9C32B962CAD3DAD4EAD5FAD07
:103070002B970E945AC44B015C010E9408BD6B0152
:103080007C01C501B4010E94A5BE4B015C01A701F2
:1030900096016BAD7CAD8DAD9EAD0E945AC42B01E7
:1030A0003C01A501940127966CAD7DAD8EAD9FAD21
:1030B00027970E945AC49B01AC01C301B2010E9430
:1030C0001FBC2B013C01A50194016BAD7CAD8DAD06
:1030D0009EAD0E945AC44B015C01A7019601279640
:1030E0006CAD7DAD8EAD9FAD27970E945AC49B01FC
:1030F000AC01C501B4010E941EBC23966CAF7DAF2C
:103100008EAF9FAF2397D12C9201A30167966CAD30
:103110007DAD8EAD9FAD67970E941FBC69837A839A
:103120008B839C8323962CAD3DAD4EAD5FAD239735
:103130006B966CAD7DAD8EAD9FAD6B970E941FBC45
:103140006D837E838F839887A7962CAD3DAD4EAD62
:103150005FADA79769857A858B859C850E941FBC8A
:1031600069877A878B879C87AB962CAD3DAD4EAD3A
:103170005FADAB976D857E858F8598890E941FBC5A
:103180006D877E878F87988B80918F02882321F0AF
:10319000CE0101960E94F579C09029106F96ECAC93
:1031A000FDAC0EAD1FAD6F979E01235F3F4FAE018B
:1031B000475F5F4FBE016B5F7F4FCE0101960E945C
:1031C000EE3C4FEF241A340ACECEC09029106F96F1
:1031D000ECACFDAC0EAD1FAD6F972CE131E148E1D9
:1031E00051E164E171E180E191E10E94EE3C0E94D5
:1031F000354A0E94F04C0C94ED26E4EDF2E2849105
:103200008F010F5F1F4F882321F00E94FB4CF801B4
:10321000F6CFECEEF1E084918F010F5F1F4F882312
:1032200011F40C94ED260E94FB4CF801F4CF80E5DC
:103230000E94774A882329F00E94FE4A6B017C0194
:1032400003C0C12CD12C760183E50E94774A8823E4
:1032500021F00E94A14B6B017C010E94FB820E9425
:10326000F04C8091F0109091F110A091F210B0917B
:10327000F310C80ED91EEA1EFB1E80919002811128
:1032800005C060E082E092E00E94E6340E94A72E32
:10329000DC01CB018C199D09AE09BF09B7FD02C045
:1032A0000C94ED2680E00E94F4A5F0CF0E94FB82F2
:1032B0004090000250900102609002027090030260
:1032C0004092760450927704609278047092790468
:1032D0008091180290911902909375048093740460
:1032E00084E690E090931902809318020E94F04CBB
:1032F00081E08093100288E50E94774A282E89E5B4
:103300000E94774A082F8AE50E94774A382E2110BA
:1033100005C0011105C011E0182705C0011102C048
:1033200010E001C0182F0E942B4A111105C0211076
:1033300003C0002309F49CC020E030E040EA50E4E0
:10334000609100117091011180910211909103110F
:103350000E941FBC6B017C016093181170931911BE
:1033600080931A1190931B1180904C1090904D10E7
:10337000A0904E10B0904F10A50194010E9467BE1E
:1033800018160CF062C0A7019601C501B4010E9495
:10339000F5C387FF16C080E090E0A0E8B0E480931A
:1033A000000290930102A0930202B0930302C09224
:1033B0004C10D0924D10E0924E10F0924F100E949F
:1033C000584A85E595E5A5E0B3E480930002909323
:1033D0000102A0930202B09303020E94584AC090D7
:1033E0001811D0901911E0901A11F0901B11A7013B
:1033F000960160914C1070914D1080914E109091FB
:103400004F100E9467BE1816B4F480E090E0A0E868
:10341000B0E48093000290930102A0930202B09363
:103420000302C0924C10D0924D10E0924E10F092D8
:103430004F100E94584A0E94FB8240920002509214
:1034400001026092020270920302111105C0211064
:1034500003C0011107C00CC080E090E00E9444A4AA
:103460001123B9F381E090E00E9444A4111102C03D
:10347000332021F082E090E00E9444A40E94254C79
:103480008091F706809310028091760490917704E2
:10349000A0917804B0917904809300029093010286
:1034A000A0930202B093030280917404909175047A
:1034B00090931902809318020E94F04C0E94258B71
:1034C0000C94ED26109271040C94ED2681E080930B
:1034D00071040C94EE2685E40E94774AB82E81117F
:1034E00002C00E94FB8204EE802E02E0902E84E453
:1034F000C82E80E1D82E94E0E92E91E1F92E00E06B
:1035000010E0A12CD4018D914D010E94774A8823AF
:10351000F1F1F6012081318142815381E4962FAF90
:10352000E497E5963FAFE597E6964FAFE697E796C7
:103530005FAFE7970E94094BD6016D937D938D9302
:103540009C931397E4962FADE497E5963FADE597EE
:10355000E6964FADE697E7965FADE7970330110526
:10356000B1F00E941EBC9B01AC01F701608171812A
:10357000828193810E941FBCD7016D937D938D93AF
:103580009C931397C8010E94984CAA24A3940F5FA0
:103590001F4FB4E0CB0ED11CE4E0EE0EF11C043062
:1035A000110509F0AFCFAA2019F00E94254C03C0E5
:1035B000B1100E94AEA20E94258B0C94ED262037FC
:1035C000310509F4B9C508F0ACC02A32310509F457
:1035D0009EC408F05AC02731310509F433C270F592
:1035E0002231310509F496C6D8F42230310508F4A9
:1035F00060C12131310511F00C94ED2660E08FE3BC
:1036000092E00E94E6345F988A989FB7F894809180
:1036100008018E7F809308019FBF12980C94ED26BD
:103620002531310509F404C208F006C22431310500
:1036300011F00C94ED26E7E5F2E0B7C12B3131052E
:1036400009F426C238F42931310509F40DC208F411
:1036500000C210C22E31310509F456C260F42C317B
:10366000310511F00C94ED2640E060E0C8010E94A5
:103670001BA90C94ED262F31310509F4A3C3203288
:10368000310509F44FC30C94ED262C35310509F4AE
:103690007FC630F52135310509F41BC688F42C347A
:1036A000310509F477C42D34310509F476C42B347F
:1036B000310511F00C94ED260E946EA20C94ED26BB
:1036C0002335310509F422C608F41DC62435310519
:1036D00009F420C62535310509F449C60C94ED26B8
:1036E0002B36310509F4DFC560F42936310509F4BC
:1036F00066C508F0B0C52836310509F451C40C94EC
:10370000ED262D36310509F477C508F412C52E369D
:10371000310509F492C42F36310509F49FC40C9485
:10372000ED262C3D310511F40C94822508F057C08C
:103730002139310509F438C750F52537310509F429
:10374000BFC670F42237310509F4AAC608F4FBC4D9
:103750002337310511F00C94ED26EAEBF3E0A5C612
:103760002837310509F415C740F42737310511F022
:103770000C94ED26E8E9F4E0A8C62937310509F4F0
:103780000EC72C38310509F407C50C94ED262B3CE7
:10379000310509F4E7C770F4283C310509F478C70E
:1037A000293C310509F4BCC72E3B310511F00C94BE
:1037B000ED263AC52D3C310511F40C943A2408F459
:1037C000EFC72E3C310511F40C94A524233D31059F
:1037D00011F00C94ED26E3E9F6E10C94EC242A397F
:1037E000F1E03F0709F4ACC488F52D3251E035070C
:1037F00011F40C94D62590F4223E310511F40C946A
:10380000A8252C3291E0390711F40C94D3252D3DD5
:10381000310511F00C94ED260C948F252F32A1E088
:103820003A0711F40C94502610F40C94D925233641
:10383000E1E03E0711F40C94A3262039314011F049
:103840000C94ED260E94FB820C94ED26263F41E06D
:10385000340711F40C94722690F4243F81E0380769
:1038600011F40C94532610F00C946C262C3A314031
:1038700011F00C94ED260E94E48B0C94ED26283573
:10388000B2E03B0711F40C94812638F4273F314015
:1038900011F40C9475260C94ED26203A43E034077D
:1038A00009F486C2273E334011F40C94BB260C94D5
:1038B000ED2680E50E94774A882361F00E94FE4A47
:1038C0006B017C01BB24B394672B682B692B31F40B
:1038D000B12C04C0B12CC12CD12C760183E50E94FF
:1038E000774A882399F00E94A14B6B017C01B110AB
:1038F0000FC0672B682B692B59F4D8018C91882352
:1039000039F061E0C8010E94FB3407C0BB20A9F375
:1039100060E08CE292E00E94E63483E090E09093D5
:10392000EC108093EB1081E0809389040E94FB826D
:103930000E94F04CC114D104E104F104F1F0809133
:10394000F0109091F110A091F210B091F310C80E08
:10395000D91EEA1EFB1E0E94A72EDC01CB018C198A
:103960009D09AE09BF09B7FF1CC080918904882357
:10397000C1F080E00E94F4A5EECF809189048823F5
:1039800021F080E00E94F4A5F8CF80912C0860E03F
:10399000882319F08DE192E002C08BE092E00E9452
:1039A000E634109289040C94ED2684918F010F5F08
:1039B0001F4F882321F00E94FB4CF801F6CF109294
:1039C000B20A1092B10A40E050E0BA018DE598E0E9
:1039D0000E945C728BE1EDE5F8E0DE011596019046
:1039E0000D928A95E1F780915B0890915C089C8329
:1039F0008B838CEA93E09A83898340E050E0BE0198
:103A00006F5F7F4F8DE594E00E942093CE01019679
:103A10000E9489A5E8E4F2E084918F010F5F1F4FB7
:103A2000882311F40C94ED260E94FB4CF801F4CF8E
:103A30000E94D5A00C94ED2610922C0810922D080F
:103A40000C94ED2640E061E0C8010E941BA90C9493
:103A5000ED2680912D08882319F081E080932C08B1
:103A60000E946EA20C94ED2610922C080E94ECA2EB
:103A70000C94ED2680912D08882311F40C94ED26EA
:103A800083E50E94774A81110C9411270C94ED264E
:103A900080912D08882351F1E8E6F2E084918F01AE
:103AA0000F5F1F4F882321F00E94FB4CF801F6CFD7
:103AB0006091A80A7091A90A8091AA0A9091AB0A14
:103AC0004AE00E94024D8FE20E94FB4C6091A40AE2
:103AD0007091A50A8091A60A9091A70A4AE00E94D7
:103AE000024D8AE00E94FB4C0C94ED26EAE7F2E0DE
:103AF00084918F010F5F1F4F882311F40C94ED26E2
:103B00000E94FB4CF801F4CF80912D08882311F41A
:103B10000C94ED2687EF99E00E94F16287EF99E01F
:103B20000E94457310922B0810922A08E0907204AC
:103B3000F090730480912D08882311F40C94ED26E5
:103B40000E94C5911D8218861C821B828CEA93E01C
:103B50009A83898389E598E090937908809378081F
:103B6000F70180818F3209F068C06FE270E0C70111
:103B70000E944BBF8C010F5F1F4F9E012F5F3F4F75
:103B800049010115110509F45EC06FE270E0C8013A
:103B90000E944BBF6C01009709F456C00817190723
:103BA00008F052C05C01A01AB10AA501B801CE010B
:103BB00080960E9474BFE0E2F0E0EC0FFD1FEA0D7A
:103BC000FB1D10828E01005E1F4FD8018D918D016B
:103BD000882319F00E94FB4CF8CF8AE00E94FB4C2E
:103BE00060917808709179086115710511F06C5F2A
:103BF0007F4F21E0AE01405E5F4FCE0105960E94EF
:103C00000479811112C0BE01605E7F4F81EB92E0AA
:103C10000E946F3B8EE20E94FB4C8AE00E94FB4CAC
:103C2000C4010E9489A50C94ED2690927908809297
:103C3000780886010F5F1F4FA4CF8AE798E0909322
:103C400079088093780887016091780870917908E5
:103C50006115710511F06C5F7F4F18A21BA222E065
:103C6000A801CE0180960E940479811102C0F12C36
:103C700014C0CE0180960E9433918823C1F361E085
:103C8000CE0180960E944E73009789F325EEFC01C9
:103C900020831BA20E949F60F82ECE0180960E9476
:103CA000EA4CFF2009F1EBE8F2E084917F012FEF6D
:103CB000E21AF20A882321F00E94FB4CF701F5CFAB
:103CC000D8018D918D01882319F00E94FB4CF8CF0B
:103CD0008AE00E94FB4C1092A80A1092A90A109246
:103CE000AA0A1092AB0A18C0E9E9F2E084917F01B8
:103CF000BFEFEB1AFB0A882321F00E94FB4CF7016F
:103D0000F5CFF80181918F01882319F00E94FB4CB7
:103D1000F8CF8EE20E94FB4CCE0101960E9489A54D
:103D20000C94ED2680912C0881110E94FB82009159
:103D300072041091730461E270E0C8010E944BBFED
:103D4000009719F08C010F5F1F4F80E50E94774AA2
:103D5000882349F0FF24F39480916A0490916B04C6
:103D60008017910708F0F12C80912D08882311F419
:103D70000C94ED264F2D61E0C8010E941BA983E53C
:103D80000E94774A882349F080916A0490916B04DD
:103D90008017910710F40C94222780912D08882316
:103DA00019F081E080932C08F1100C94ED2658CE88
:103DB00081E080932B0840E060E0C8010E941BA9CD
:103DC0000C94ED260E94EA921CE3C12ED12CE12C2A
:103DD000F12CA70196010E94BAC7762E672ECA0160
:103DE000B901A70196010E94BAC76B017C01CA0103
:103DF000B90128E130E040E050E00E94BAC74B0131
:103E00005C01C9016DE671E00E94C3BB8E010F5FCA
:103E10001F4F6115710599F06F927F92DF92CF92DB
:103E20009F928F929F938F937F936F938DEE92E0EB
:103E30009F938F931F930F930E948EC312C000977E
:103E4000B1F06F927F92DF92CF929F928F929F9369
:103E50008F938DED92E09F938F931F930F930E940A
:103E60008EC30FB6F894DEBF0FBECDBF36C081142F
:103E70009104A104B10479F06F927F92DF92CF9206
:103E80009F928F9281ED92E09F938F931F930F9358
:103E90000E948EC3E6CFC114D104E104F10469F09D
:103EA0006F927F92DF92CF9289EC92E09F938F93F3
:103EB0001F930F930E948EC3D4CF6F927F9285EC95
:103EC00092E09F938F931F930F930E948EC30F9046
:103ED0000F900F900F900F900F9060E0C8010E941C
:103EE000FB34E3E9F6E184917F01BFEFEB1AFB0AB3
:103EF000882321F00E94FB4CF701F5CFB80181E047
:103F000093E00E946F3B8AE00E94FB4C66C783E50A
:103F10000E94774A882309F460C70E94F14A7C0115
:103F20008F3F910511F008F058C780E50E94774A4D
:103F3000882331F00E94F14A8C0197FF03C04DC7DE
:103F40000DE010E0D02EE8EEF2E0C80199272191B3
:103F500031912817390729F023E0E833F207B9F740
:103F600083C7E4EDF2E284918F010F5F1F4F882336
:103F700021F00E94FB4CF801F6CFEEE0F3E08491D3
:103F80008F010F5F1F4F882309F427C70E94FB4C46
:103F9000F801F5CF0E94ECA220C70E94EF911DC747
:103FA00088E690E00E94824D811117C78091020738
:103FB00083FD13C783E50E94774A8823D9F10E94C5
:103FC000F14A909324108093231080E00E947F7D1B
:103FD0000E94F14A863591053CF40E94EF9160E021
:103FE00084E293E00E94E6340E94F14A8C016091E1
:103FF0008A0470918B0480918C0490918D040E94AE
:104000007CBD60177107B4F481EE93E09F938F93AA
:1040100080916C0490E001969F938F938DE193E0E3
:104020009F938F931F920E9453A20FB6F894DEBF06
:104030000FBECDBF0E94AFB6D0C68EE40E94774AB5
:10404000882309F4CAC60E94F1B66093E710709302
:10405000E8108093E9109093EA10BFC683E50E94B0
:10406000774A882319F00E948A4A01C080E0809331
:104070000207E3E9F6E184918F010F5F1F4F882368
:1040800021F00E94FB4CF801F6CFE4E4F3E08491C8
:104090008F010F5F1F4F882321F00E94FB4CF80116
:1040A000F6CF809102078823A1F1B6E3CB2EB3E0CF
:1040B000DB2EE12CF12C20E08091020790E00E2C09
:1040C00002C0959587950A94E2F780FF17C0BB243C
:1040D000B394B20E222319F08CE20E94FB4CF6013D
:1040E00025913491F901849189010F5F1F4F882335
:1040F00021F00E94FB4C9801F5CF2B2DFFEFEF1A1A
:10410000FF0A32E0C30ED11C45E0E416F104A1F62B
:104110000CC0E0E4F3E084918F010F5F1F4F882310
:1041200021F00E94FB4CF801F6CF8AE00E94FB4C84
:1041300054C61092150251C68BE493E00E94A3A5C9
:104140000E94008A4AC683E50E94774A882359F074
:104150000E948A4A8093D5028D3308F43EC68CE3D0
:104160008093D5023AC6E3E9F6E184918F010F5FAF
:104170001F4F882321F00E94FB4CF801F6CF40919D
:10418000D50250E060E070E084E593E00E94FF3AE1
:104190008AE00E94FB4C21C68091020783FD1DC668
:1041A00083E50E94774A882309F417C60E94F14AE2
:1041B00090932B1080932A100E944C7D0EC689E6A6
:1041C00090E00E94824D811111C0EBE5F3E08491F3
:1041D0008F010F5F1F4F882321F00E94FB4CF801D5
:1041E000F6CF0E94078D8AE00E94FB4C1092EC10E3
:1041F0001092EB100C94452D8DE690E00E94824DBC
:104200008111EBC58091020783FDE7C583E50E941C
:10421000774A24968FAF249781113AC682E50E948F
:10422000774A811135C6D9C58091020783FDD5C56E
:1042300060E08DE993E00E94E63483E50E94774ACE
:1042400024968FAF24978111C6C782E50E94774AD2
:104250008111C1C7C2C583E50E94774A882321F036
:104260000E94E44A8C0102C00FEF10E080E50E943A
:10427000774A882319F00E94E44A02C080E090E067
:1042800098010F3F110519F010F02FEF30E0823048
:10429000910508F0A2C5880F991FFC01EB5DFF4E48
:1042A000318320839AC580E50E94774A882339F0BC
:1042B0000E94E44A8230910508F08FC502C080E078
:1042C00090E0880F991FFC01EB5DFF4E1182108278
:1042D00084C50E94B27D0E94FB820E9493A5109229
:1042E000261010922510109228101092271068EEB8
:1042F00073E080E090E00E944D3460E08AEA93E051
:104300000E94E6346AC51092700467C581E080930C
:10431000700464C583E50E94774A882359F00E949F
:10432000A14B6093D6027093D7028093D8029093EA
:10433000D90253C588E50E94774A81110C945C2A02
:1043400089E50E94774A81110C945C2A8AE50E94D3
:10435000774A81110C945C2A85E40E94774A811186
:104360000C945C2A0E94FB820E9493A536C583E5CB
:104370000E94774A882309F430C50E94A14B6093BC
:10438000F4107093F5108093F6109093F71025C5F4
:1043900034EEC32E32E0D32E44E5E42E40E1F42E79
:1043A00010E0D6018D916D010E94774A882309F4AF
:1043B0006DC0133009F063C00E94094B4B015C01D2
:1043C00020E030E040EA51E40E94F5C387FF4EC090
:1043D000A50194016091601070916110809162104C
:1043E000909163100E940BBD2B013C019B01AC011D
:1043F0006091F30A7091F40A8091F50A9091F60A9F
:104400000E945AC46093F30A7093F40A8093F50AE9
:104410009093F60AA30192016091E30A7091E40A75
:104420008091E50A9091E60A0E945AC46093E30ADB
:104430007093E40A8093E50A9093E60A609173060C
:104440007091740680917506909176060E94F9C36A
:10445000A30192010E945AC40E9482BD6093730618
:104460007093740680937506909376068092601020
:1044700090926110A0926210B092631007C00E94E7
:10448000094BF70160837183828393831F5FF4E09C
:10449000EF0EF11C143009F084CF0E94C43C9DC47F
:1044A0000E94FB820E94258B98C484918F010F5F2C
:1044B0001F4F882309F491C40E94FB4CF801F5CFEB
:1044C00060E0C8010E94FB3488C484918F010F5FB3
:1044D0001F4F882321F00E94FB4CF801F6CFE0E942
:1044E000F4E084918F010F5F1F4F882321F00E9419
:1044F000FB4CF801F6CF659B03C00EEC13E002C045
:1045000003ED13E0D8018D918D01882319F00E94ED
:10451000FB4CF8CF8AE00E94FB4CE8E8F4E0849181
:104520008F010F5F1F4F882321F00E94FB4CF80181
:10453000F6CF8091030181FF03C00EEC13E002C0AF
:1045400003ED13E0F80181918F01882319F00E9497
:10455000FB4CF8CF8AE00E94FB4CE0E8F4E0849149
:104560008F010F5F1F4F882321F00E94FB4CF80141
:10457000F6CF4B9B03C00EEC13E002C003ED13E03B
:10458000D8018D918D01882309F4CFCD0E94FB4C79
:10459000F7CF81E0809310028093F7061FC410923A
:1045A00010021092F70619C483E50E94774A882307
:1045B000F1F00E94F14A182F8230D0F0E4EDF2E2DF
:1045C00084918F010F5F1F4F882321F00E94FB4CC5
:1045D000F801F6CFE2EBF4E084918F010F5F1F4FFB
:1045E000882309F4FAC30E94FB4CF801F5CF10E0D0
:1045F00088E40E94774A8823B1F00E94F14AE12FB3
:10460000F0E08A3A91053CF08530B1E09B072CF050
:1046100084E091E002C08AEA90E0EE0FFF1FEC5CBC
:10462000F84F9183808386E40E94774A8823A1F023
:104630000E94F14AE12FF0E0EE0FFF1FE85CF84F17
:104640008F3F910519F014F08FEF90E097FF02C0B3
:1046500080E090E09183808382E40E94774A8823FF
:1046600009F4BBC30E94F14AE12FF0E085309105C7
:1046700034F0883891052CF087E890E002C085E09E
:1046800090E0EE0FFF1FE05DF84F91838083A5C39C
:1046900088EC90E00E94824D81119FC384E40E94C7
:1046A000774A8823D1F10E94094B11E020E030E0E5
:1046B000A9010E94F5C3811101C010E010933713C6
:1046C000112359F100916C0410E00E94094B000F76
:1046D000111F000F111FF801E652FD4F6083718317
:1046E0008283938320E030E0A9016091DA02709127
:1046F000DB028091DC029091DD020E94F5C3811102
:104700000CC080E090E0A0E4B0E48093DA029093E3
:10471000DB02A093DC02B093DD020E94FFA35DC325
:10472000FFEBEF2EFAE0FF2E04EE12E0A4E0DA2E0B
:10473000D00EF80181918F010E94774A882351F0B1
:104740000E94094B0E9482BDD7016D937D938D938A
:104750009C931397B4E0EB0EF11CD012EACF0E94A9
:10476000973B3BC377EDE72E7AE0F72E04EE12E09D
:10477000E4E0DE2ED00EF80181918F010E94774A8D
:10478000882341F00E94094BD7016D937D938D934F
:104790009C931397B4E0EB0EF11CD012ECCF1DC329
:1047A00083E50E94774A8823D9F00E94094BAB0128
:1047B000BC014093F70A5093F80A6093F90A70938A
:1047C000FA0A4093B70A5093B80A6093B90A7093F3
:1047D000BA0A8EE295E00E94393B8AE00E94FB4CC7
:1047E00080E50E94774A882399F00E94094BAB012B
:1047F000BC014093F70A5093F80A6093F90A70934A
:10480000FA0A81E195E00E94393B8AE00E94FB4C64
:1048100082E50E94774A882399F00E94094BAB01F8
:10482000BC014093BB0A5093BC0A6093BD0A7093CD
:10483000BE0A82EF94E00E94393B8AE00E94FB4C62
:1048400084E50E94774A882309F4C7C20E94094B75
:10485000AB01BC014093B70A5093B80A6093B90A00
:104860007093BA0A84ED94E00E94393B8AE00E947A
:10487000FB4CB3C283E50E94774A882351F00E9423
:10488000094B6093D30A7093D40A8093D50A90930E
:10489000D60A84E50E94774A882351F00E94094B8A
:1048A0006093CF0A7093D00A8093D10A9093D20A72
:1048B00082E40E94774A882351F00E94FE4A609366
:1048C000630670936406809365069093660688E598
:1048D0000E94774A882351F00E94094B6093E70AAF
:1048E0007093E80A8093E90A9093EA0A89E50E94A6
:1048F000774A882351F00E94094B6093EB0A70932A
:10490000EC0A8093ED0A9093EE0A8AE50E94774ABA
:10491000882351F00E94094B6093EF0A7093F00ACC
:104920008093F10A9093F20A85E40E94774A8823E3
:1049300009F453C20E94094B6093F30A7093F40A7E
:104940008093F50A9093F60A48C244EEA42E42E002
:10495000B42E54E4C52E50E1D52E64EBE62E64E06F
:10496000F62E00E010E0F50181915F010E94774A88
:10497000882311F10E94094B2B013C01D7012D9195
:104980003D914D915C910E941EBC9B01AC01F601D2
:1049900060817181828193810E941FBCD6016D93D9
:1049A0007D938D939C931397F7014082518262828D
:1049B0007382C8010E94984C0F5F1F4FF4E0CF0E26
:1049C000D11C24E0E20EF11C0330110561F60E94B7
:1049D000254C0E94258B01C284918F010F5F1F4FD0
:1049E000882321F00E94FB4CF801F6CF83E50E945A
:1049F000774A882321F00E94B94A80938F02EEE71C
:104A0000F5E084918F010F5F1F4F882321F00E94F2
:104A1000FB4CF801F6CF80918F02811103C0EAE7C9
:104A2000F5E002C0E6E7F5E084918F010F5F1F4FCC
:104A3000882321F00E94FB4CF801F6CFEEE6F5E06A
:104A400084918F010F5F1F4F882321F00E94FB4C40
:104A5000F801F6CF40918302509184026091850263
:104A6000709186028CE695E00E94393B4091870266
:104A7000509188026091890270918A0289E695E0DE
:104A80000E94393B40918B0250918C0260918D02C3
:104A900070918E0286E695E00E94393BEEE5F5E0E6
:104AA00084918F010F5F1F4F882321F00E94FB4CE0
:104AB000F801F6CF40917702509178026091790227
:104AC00070917A028CE595E00E94393B40917B021F
:104AD00050917C0260917D0270917E0289E595E0A3
:104AE0000E94393B40917F02509180026091810287
:104AF0007091820286E595E00E94393B8AE00E942F
:104B0000FB4C6BC183E50E94774A882309F465C199
:104B10000E94F14A90931902809318025EC18DEDB4
:104B200090E00E94824D811158C183E50E94774A2E
:104B3000882309F452C100916C0410E00E94F14AEC
:104B4000000F111FF801EA5EFD4F9183808345C17C
:104B500080E50E94774A882309F43FC10E94F14A08
:104B60008C0183E50E94774A882321F00E94F14A54
:104B70007C0103C0EE24EA94FE2CC7010196039742
:104B800008F02BC117FD29C1E8EEF2E0C801992712
:104B9000219131912817390709F41FC133E0E83317
:104BA000F307B1F749C70E94F38A17C10E94558ADB
:104BB00014C183E50E94774A082F8823D1F00E9410
:104BC000F14ABC01990F880B990B0E94FBC36093BB
:104BD000060270930702809308029093090211E085
:104BE00020E030E0A9010E94F5C3811110E010938C
:104BF0008E0480E50E94774A182F8823A9F020E0D0
:104C000030E0A901609106027091070280910802CC
:104C1000909109020E94F5C3882319F00E94B94AB5
:104C2000182F10938E04D9C00111D7C0E3E9F6E123
:104C300084918F010F5F1F4F882321F00E94FB4C4E
:104C4000F801F6CF80918E04811103C06DED73E001
:104C500002C060ED73E083EA95E00E946F3B20E0C4
:104C600030E040E05FE360910602709107028091BE
:104C70000802909109020E941FBC0E947CBD82E93B
:104C800095E00E94563BEEE8F5E084918F010F5FBE
:104C90001F4F882309F4A1C00E94FB4CF801F5CFF7
:104CA0000E94938D9AC0E4EDF2E284918F010F5F30
:104CB0001F4F882321F00E94FB4CF801F6CFE6EB52
:104CC000F5E084918F010F5F1F4F882309F485C0A1
:104CD0000E94FB4CF801F5CF0E942A5F80E00E9401
:104CE000995B7BC00E942A5F78C083E50E94774A67
:104CF000882321F00E94B94A91E089270E94995B9C
:104D00006CC08091020783FD01C40E9465A58823C1
:104D100009F4FCC3E4EDF2E284918F010F5F1F4FB1
:104D2000882321F00E94FB4CF801F6CFE7ECF5E078
:104D300084918F010F5F1F4F882309F44EC00E949A
:104D4000FB4CF801F5CFE4EDF2E284918F010F5FA7
:104D50001F4F882321F00E94FB4CF801F6CFE0EFB3
:104D6000F5E084918F010F5F1F4F8823B1F10E94FE
:104D7000FB4CF801F6CF81E0809332021092641070
:104D800083E50E94774A882309F453C60E94B94AF2
:104D9000811123C04EC620932910E3E9F6E18491E6
:104DA0008F010F5F1F4F882321F00E94FB4CF801F9
:104DB000F6CF6091291070E08FEF95E00E94563B8E
:104DC0008AE00E94FB4C09C080E008C00930110550
:104DD00021F4F0922610E092251081E01092EC1060
:104DE0001092EB1081111AC00C94801284918F01E3
:104DF0000F5F1F4F882321F00E94FB4CF801F6CF74
:104E00006091EE107091EF1081E196E00E946F3B8F
:104E100082E20E94FB4C8AE00E94FB4C0E947EA82A
:104E200034C60E94F1B6AB01BC014093A80A50936E
:104E3000A90A6093AA0A7093AB0A87EF99E00E94CF
:104E40005C72CBCF0E94F1B6AB01BC014093A80AC3
:104E50005093A90A6093AA0A7093AB0A87EF99E06E
:104E60000E945C720C94CD1E61E08D2D0E946C3806
:104E70006E2D8D2D0E943D38B7018D2D67D60730E0
:104E8000110509F0A3CFF0922810E0922710A5CFCA
:104E90000E94F14A909324108093231080E00E9496
:104EA0007F7D0E94F14A8635910544F40E94EF917E
:104EB00060E08AE793E00E94E63402C00E946EA29E
:104EC0006091231070912410072E000C880B990B11
:104ED0000E94FBC320918A0430918B0440918C0482
:104EE00050918D040E9467BE1816B4F481EE93E0D1
:104EF0009F938F9380916C0490E001969F938F9382
:104F000083E793E09F938F931F920E9453A20FB663
:104F1000F894DEBF0FBECDBF0E94AFB681E0809394
:104F200015021092EC101092EB1023961CAE1DAEE1
:104F30001EAE1FAE23972B961CAE1DAE1EAE1FAE2F
:104F40002B971BAE2C961FAE2C979CE360969FAFC1
:104F50006097ACE16496AFAF6497B6E46896BFAF74
:104F60006897C12CD12CF0E8EF2EAFEBFA2E812CF4
:104F7000912C54016091231070912410072E000C85
:104F8000880B990B0E94FBC3162F072F782E692ED2
:104F9000262F372F482F592FB601C7010E94F5C37E
:104FA000882311F120918A0430918B0440918C0464
:104FB00050918D04612F702F872D962D0E94F5C37F
:104FC000881F8827881F8BAF2496EFAD2497EE2388
:104FD00079F0882369F080911502882309F4FDCEC9
:104FE00060E08EE593E06EC11C2D0D2D7E2C6F2CA4
:104FF000AED66B017C01DC01CB012B962CAD3DAD17
:105000004EAD5FAD2B97821B930BA40BB50BB7FD79
:1050100047C0D701C60188519C4FAF4FBF4F2B9659
:105020008CAF9DAFAEAFBFAF2B970E94078DEFE661
:10503000F3E084912F019FEF491A590A882321F048
:105040000E94FB4CF201F5CF81149104A104B1043C
:10505000D1F0D501C401805F984DAF4FBF4FBC0167
:10506000CD016C197D098E099F0928EE33E040E0DF
:1050700050E00E94BAC7CA01B9010E94684D8AE097
:105080000E94FB4C0DC0ECE6F3E084912F01AFEFE2
:105090004A1A5A0A882321F00E94FB4CF201F5CFEC
:1050A00080E00E94F4A50E94F04C60918A04709107
:1050B0008B0480918C0490918D040E947CBD072EFE
:1050C000000C880B990B0E94FBC31B012C019B0158
:1050D000AC01612F702F872D962D0E941EBC9F77EB
:1050E00081149104A104B10449F420E030E040E8C7
:1050F0005FE30E94F5C387FF0BC008C020E030E0EB
:1051000040E450E40E9467BE181614F446015701AB
:10511000BBADBB2309F443C023962CAD3DAD4EADD2
:105120005FAD2397211531054105510541F0D701A8
:10513000C601821B930BA40BB50BB7FD30C09101C8
:10514000A2012C966FAD2C9760967FAD6097649608
:105150008FAD649768969FAD68970E941EBC20E053
:1051600030E040EC5FE30E94F5C387FD34CFD70108
:10517000C601805A9541AF4FBF4F23968CAF9DAF6C
:10518000AEAFBFAF23972C962FAE2C9760963FAE55
:10519000609764964FAE649768965FAE689780910B
:1051A0001502882309F417CF81149104A104B104D6
:1051B00029F4C12ED02EE72CF62CDCCE90E1C91AB2
:1051C00097E2D90AE108F108C818D908EA08FB08EB
:1051D000F7FE01CFEECF0E94F14A90932B108093FF
:1051E0002A100E944C7D0E94F14A069714F00E94FA
:1051F0006EA281E0809315021092EC101092EB10D9
:105200008091291080936C0423961CAE1DAE1EAEB7
:105210001FAE23972B961CAE1DAE1EAE1FAE2B9756
:105220001BAE2C961FAE2C97ACE36096AFAF609789
:10523000BCE16496BFAF6497E6E46896EFAF689709
:10524000C12CD12C70E8E72EEFEBFE2E812C912C97
:10525000540160912A1070912B10072E000C880BBE
:10526000990B0E94FBC3162F072F782E692E262F2D
:10527000372F482F592FB601C7010E94F5C3882345
:1052800021F12091FD063091FE064091FF065091DC
:105290000007612F702F872D962D0E94F5C3881F60
:1052A0008827881F8BAF2496FFAD2497FF2389F0B2
:1052B000882379F080911502882309F48ECD60E06F
:1052C0008CE893E00E94E63488CD1C2D0D2D7E2CB9
:1052D0006F2C3DD56B017C01DC01CB012B962CADF5
:1052E0003DAD4EAD5FAD2B97821B930BA40BB50B61
:1052F000B7FD47C0D701C60188519C4FAF4FBF4F84
:105300002B968CAF9DAFAEAFBFAF2B970E94078D92
:10531000E9E9F3E084912F019FEF491A590A8823A4
:1053200021F00E94FB4CF201F5CF81149104A104FD
:10533000B104D1F0D501C401805F984DAF4FBF4F8C
:10534000BC01CD016C197D098E099F0928EE33E05F
:1053500040E050E00E94BAC7CA01B9010E94684DFE
:105360008AE00E94FB4C0DC0E6E9F3E084912F0136
:10537000AFEF4A1A5A0A882321F00E94FB4CF2012F
:10538000F5CF80E00E94F4A50E94F04C6091FD06EC
:105390007091FE068091FF06909100070E947CBDEF
:1053A000072E000C880B990B0E94FBC31B012C01DC
:1053B0009B01AC01612F702F872D962D0E941EBC82
:1053C0009F7781149104A104B10449F420E030E0F6
:1053D00040E85FE30E94F5C387FF0BC008C020E0F0
:1053E00030E040E450E40E9467BE181614F4460111
:1053F0005701BBADBB2309F443C023962CAD3DAD93
:105400004EAD5FAD2397211531054105510541F0A2
:10541000D701C601821B930BA40BB50BB7FD30C09F
:105420009101A2012C966FAD2C9760967FAD60978D
:1054300064968FAD649768969FAD68970E941EBC76
:1054400020E030E040EC5FE30E94F5C387FD32CFFF
:10545000D701C601805A9541AF4FBF4F23968CAFFD
:105460009DAFAEAFBFAF23972C962FAE2C97609613
:105470003FAE609764964FAE649768965FAE68974C
:1054800080911502882309F415CF81149104A10499
:10549000B10429F4C12ED02EE72CF62CDACE90E1FF
:1054A000C91A97E2D90AE108F108C818D908EA0828
:1054B000FB08F7FEFFCEEECF0E94FB8288E50E943C
:1054C000774A882319F05F9A1092B10489E50E9407
:1054D000774A882319F08A9A1092B2048AE50E94CA
:1054E000774A882351F09FB7F89480910801816032
:1054F000809308019FBF1092B30485E40E94774A0D
:10550000882309F46ACC0E9491A567CC81E080933E
:10551000ED1080911C0890911D089CAF8BAF0E94EC
:10552000ECA280E090E00E94A25A0E94FB822091AF
:1055300044103091451040914610509147102396E9
:105540002CAF3DAF4EAF5FAF239780914810909145
:105550004910A0914A10B0914B1027968CAF9DAF87
:10556000AEAFBFAF279740904C1050904D10609059
:105570004E1070904F108090501090905110A0904D
:105580005210B09053100E942B4A85E40E94774A33
:10559000882309F471C10E94094B9B01AC01609101
:1055A0001C1170911D1180911E1190911F110E946C
:1055B0001FBC60931C1170931D1180931E1190935A
:1055C0001F1160E070E080E792E40E943F4A8AE5A4
:1055D0000E94774A882361F00E94094B6B017C018D
:1055E00020E030E0A9010E9467BE18163CF034C0EC
:1055F000C12CD12C90E2E92E91E4F92E20911811C2
:105600003091191140911A1150911B11C701B60127
:105610000E941FBC609318117093191180931A1186
:1056200090931B1120E030E048E453E40E9467BEF1
:10563000181664F480E090E0A8E4B3E480931811B5
:1056400090931911A0931A11B0931B1160E070E0B0
:1056500080EA90E40E943F4A88E50E94774A8823C6
:1056600059F00E94094B60931011709311118093AF
:105670001211909313110CC080E090E0A0E4B0E40C
:105680008093101190931111A0931211B0931311E4
:1056900089E50E94774A882359F00E94094B60935C
:1056A00014117093151180931611909317110CC05B
:1056B00080E090E0A0E4B0E4809314119093151181
:1056C000A0931611B093171160E070E088EC92E49B
:1056D0000E943F4A0E94FB8281E090E00E94A25A11
:1056E00080E00E94F4A58CE40E94774A882329F088
:1056F0000E94094B9B01AC0104C020E030E048EC63
:1057000052EC60911C1170911D1180911E119091AD
:105710001F110E941FBC60931C1170931D11809378
:105720001E1190931F1160E070E080E291E40E94EE
:105730003F4A0E94FB820E9491A564E670E080E0EF
:1057400090E00E944D3403D36B017C0148ECC40E01
:105750004FEAD41EE11CF11C82E090E00E94A25AA4
:1057600081E00E9416B880E00E94F4A50091231009
:105770001091241083E090E09093EC108093EB1054
:1057800081E080938904312C809189048823C1F0C1
:10579000332021F088E090E00E94A25A80E00E942D
:1057A00016B8311009C0D3D2DC01CB018C199D0988
:1057B000AE09BF09B7FF65C081E00E94F4A5E4CF40
:1057C00081E090E09093EC108093EB10332039F05F
:1057D000109324100093231080E00E947F7D89E0C5
:1057E00090E00E94A25A81E080931502FF24F39476
:1057F00080911502882309F180E00E94F4A510929F
:10580000150260918A0470918B0480918C049091B0
:105810008D040E947CBD9B01201B310B12161306C8
:1058200034F0C801861B970B049724F4E1CF243091
:105830003105F4F2F0921502DBCF332021F082E043
:1058400090E00E94A25A81E00E9416B883E090E0A6
:105850009093EC108093EB1081E080938904809109
:1058600089048823E1F03320D1F080E00E9416B84B
:1058700081E00E94F4A5F3CF20E030E040E050EC5E
:105880008ECE109224101092231080E00E947F7D13
:1058900088E090E00E94A25A332433948DCF81E0B7
:1058A00090E09093EC108093EB1083E090E00E94E6
:1058B000A25A8CE40E94774A882309F4B6C00E9459
:1058C000094B9B01AC01505860911C1170911D1146
:1058D00080911E1190911F110E941FBC60931C119A
:1058E00070931D1180931E1190931F1160E070E062
:1058F00080EC90E40E943F4A0E94FB8203E010E0AB
:10590000EE24E394F12C84E090E00E94A25A20E07F
:1059100030E048E452E460911C1170911D118091B7
:105920001E1190911F110E941FBC60931C11709357
:105930001D1180931E1190931F1160E070E080E4B0
:1059400090E40E943F4A0E94FB821093EC10009367
:10595000EB101092890485E090E00E94A25A809199
:10596000EB069091EC06009721F481E00E94F4A5EB
:10597000F6CFF092EC10E092EB10019721F286E066
:1059800090E00E94A25A8092501090925110A092E2
:105990005210B092531080921C1190921D11A0923F
:1059A0001E11B0921F110E94AEA223968CAD9DAD28
:1059B000AEADBFAD23978093101190931111A093BA
:1059C0001211B093131127962CAD3DAD4EAD5FADC6
:1059D000279720931411309315114093161150936B
:1059E000171160E070E088EC92E40E943F4A409218
:1059F00018115092191160921A1170921B1160E0E7
:105A000070E080EA90E40E943F4A0E94FB8287E0B7
:105A100090E00E94A25A4BAD5CAD4130510511F4AB
:105A20000E946EA21092ED10D8C920E030E0A901CA
:105A30004BCF0E949DA8D1C90E94FB82D02E60E06E
:105A4000802F0E946C389FEFE916F90659F4802FD9
:105A50000E94C1B131E020E0892B09F030E0032F32
:105A6000122F05C0EA94EF2869F000E010E08D2DB8
:105A70000E94C1B18017910709F4AFC980E00E946C
:105A8000F4A5F5CF01E010E0F2CFCA58DF4F0FB612
:105A9000F894DEBF0FBECDBFDF91CF911F910F9164
:105AA000FF90EF90DF90CF90BF90AF909F908F903E
:105AB0007F906F905F904F903F902F9008953FB7E9
:105AC000F8948091A7049091A804A091A904B091A2
:105AD000AA0426B5A89B05C02F3F19F00196A11D69
